:1000000000308A002628000083168612831286128A
:100010000830F8000B280000F8171C28F813A10C72
:1000200003188616031C861278171C287813F80B01
:100030000F281A28000086161C308400840B1E2806
:100040002128F81B0E28781B1628080003081F39E2
:100050008300831686128312861683161F129F1240
:100060001B0880399B0007309C008313FF308500FC
:1000700005148312051844283130A100042083168A
:1000800005148312051C3F288316851483128518D6
:1000900051283230A1000420831685148312851C58
:1000A0004C2883160515831205195E283330A100EC
:1000B0000420831605158312051D592883168515FE
:1000C000831285196B283430A1000420831685150E
:0C00D0008312851D662883163828630003
:04400E006A3FFF3FC7
:00000001FF
;PIC16F88
;CRC=E7D6  CREATED="20-Oct-20 16:03"
