:1000000000308A0036280000FF00030E8301A100A3
:100010007F08A0000A08A7008A01A00E0408A20019
:100020007708A3007808A4007908A5007A08A6003C
:10003000831383120B1E1E288B182F28220884007E
:100040002308F7002408F8002508F9002608FA001C
:1000500027088A00210E8300FF0E7F0E09008A11F7
:100060003128803086068B108A111E2803081F391C
:100070008300281083161F129F121B0880399B00D3
:1000800007309C0083130130860083128613831689
:10009000811383120B1683160117C03083128B0451
:0400A0005028630081
:04400E00613FFF3FD0
:00000001FF
;PIC16F88
;CRC=3309  CREATED="29-sep.-20 15:08"
