:1000000004308A005C2C00008C20C421A01EA012A9
:10001000343664000A2B6F36F430E732A01EA0128B
:10002000B0182E19662B0011353084008313000898
:10003000031928280130F800F701F70B1D28F80BE9
:100040001C284A30F700F70B23282628800B1A2893
:1000500008003C0EF039F7000F30060577048600E3
:10006000000006143328061008000608F700060EE4
:100070000F39F80008008316061086100611831247
:1000800086100F3083160605F03886008312061599
:1000900000000614000035207808BC00061000009F
:1000A0000614000035207808BB0006100F308316B8
:1000B0000605860083123C0EF700F030F70577083E
:1000C0003B04F8007808BB00BB1B4128391C861094
:1000D0003918861400000611000006103A0EBB0005
:1000E0000F30BB053B08BC0029203A080F39BB0084
:1000F000BC00292008002830A8000C30A9000130DD
:10010000AA000630AB000610861006110F308316C9
:10011000060586000610861006110F308312B50002
:1001200014200130A7002708033C031C9F2803303C
:10013000BC0029200530B5001420A70A93280230FE
:10014000BC0029200530B5001420A7012708033C76
:10015000031CB62828302707840083130008AC004E
:10016000B9012C08BA003B20A70AA6288A11772CCF
:100170008E30F7002808F8002708F900FA01F8087F
:10018000031DCC287908F800F9010830F702F808B7
:10019000031DCC28F701D4280310F81BD328F90D30
:1001A000F80DF703CC28F8138A11902C34080319A2
:1001B0004629BC00380803194629BC070318E7285C
:1001C0007F30BC02031C462903194629EB288130E5
:1001D000BC07031846293C08F700F801F901FA01A9
:1001E0003508C000C0173608BF003708BE001830F9
:1001F000BC00BD013E1C14293B08FA07031C06295C
:10020000F90A031D0629F80A0319BD173A08F90768
:10021000031C0D29F80A0319BD173908B600B617D3
:100220003608F8070318BD17BD0DF80CF90CFA0CC9
:10023000C00CBF0CBE0C0310BC0BF9280130F70733
:1002400003184629F81B2B29C00DFA0DF90DF80DDE
:10025000F70303194629C01F3C29FA0A031D3C294C
:10026000F90A031D3C29F80A031D3C29F80CF90C76
:10027000FA0CF70A031946293508BD003908BD06EE
:10028000BD1F4429F8174A29F8134A29F701F80134
:10029000F901FA0108002B080319102AB7002F08EA
:1002A0000319102AB702031C5A297F30B707031815
:1002B000102A60298130B702031C102A0319102A62
:1002C0003708F700F801F901FA01B6012C08B5006A
:1002D000B5172D08B4002E08B3001930B700320846
:1002E000B302031883290130B40203188329B5022D
:1002F00003188329B60203188329B60AB50AB40A7B
:100300003208B307B5293108B40203189E29013019
:10031000B50203189E29B60203189E29B60AB50A2B
:100320003108B4073208B307031CB529B40A031D0A
:10033000B529B50A031DB529B60AB5293008803894
:10034000B5020318B4290130B6020318B429B60A5D
:1003500030088038B5073108B407031C9229B50A64
:10036000031D9229B60A92297A14B70BB829C3291A
:100370000310B30DB40DB50DB60D0310FA0DF90D44
:10038000F80DB80D6F29381CCB290310F80CF90CA7
:10039000FA0CB80CCE29F7030319102AB81BF72959
:1003A0000310B30DB40DB50DB60D3208B30203182A
:1003B000E3290130B4020318E329B5020318E32945
:1003C000B602031C062A3108B4020318EE290130D4
:1003D000B5020318EE29B602031C062A300880383D
:1003E000B5020318F7290130B602031C062AFA0ADF
:1003F000031D062AF90A031D062AF80A031D062A08
:10040000F70A0319102AF80CF90CFA0C2C08B7009B
:100410003008B706B71F0E2AF817142AF813142A43
:10042000F701F801F901FA018A11B52C360B192AE6
:100430001C2A4030B7001D2AB70101303502B7072A
:1004400037088038B800B9013808BA003B200800E6
:100450003408073A0319362A0B3A03193B2A063A9D
:100460000319432A023A0319492A4E2A0130B500DA
:10047000B6001622532AB9010130BA003B200230DF
:10048000B5001420532A0130B5000230B600162200
:10049000532AB9011030BA003B20532A0130B90069
:1004A0003408BA003B2008000B08A8008B13831601
:1004B00003178C170C140000000083120313A81BF1
:1004C0008B1703188B2A03170C087F390313A80016
:1004D00003170D080313A90003170F080313AA003D
:1004E0002808B4002822290803178D0003132A08BE
:1004F00003178F0003130B08AB008B13831603172E
:100500008C170C140000000083120313AB1B8B1715
:10051000A70B8B2AAA2A03170C0D0E0D7F39031384
:10052000A80003170D080313A90003170F080313EE
:10053000AA002808B4002822290803178D000313F5
:100540002A0803178F008D0A03198F0A031003135B
:10055000A70B542A0800AF010408AE002F10831B1C
:100560002F14A81FBB2AAE172E1EAE0AA709A80972
:10057000A70A0319A80A280EF038AA00AA07E23E23
:10058000AB00323EAD0028080F39AB07AB07AD0713
:10059000E93EAC00AC07AC07270E0F39AC07AD073E
:1005A000AC0DAD0DAD09AD0D27080F39AD07AA0D86
:1005B0000730A9000A30AD07AC03031CDB2AAC07E7
:1005C000AB03031CDF2AAB07AA03031CE32AAA0719
:1005D000A903031CE72A29308400831307302E0562
:1005E0002E1384032E05031DFC2A2E1A840A2E1AAC
:1005F000FC2A2030F700192B84072D300402031940
:100600002E170008F700031D0D2B2E1B0D2B2E1A85
:10061000272BAE190D2B2030182BAE1F152B2D308C
:10062000F70084032E13AE13192BAE152E123030A3
:10063000F707A8010408A7002810831B28147708CF
:10064000B400282227088400831328188317840AFB
:100650002E1FFD2A8A11CE2C8318312B3C308400AA
:100660008313F701F801F901FA01BC01BD01BE01D4
:10067000BF013B083A043904380403196F2B2030BA
:10068000C0000310B40DB50DB60DB70DBC0DBD0DFA
:10069000BE0DBF0D3B083F02031D582B3A083E021A
:1006A000031D582B39083D02031D582B38083C0206
:1006B000031C692B3808BC023908031C390FBD0222
:1006C0003A08031C3A0FBE023B08031C3B0FBF0253
:1006D0000314F70DF80DF90DFA0DC00B412B3C0872
:1006E0008000840A3D088000840A3E088000840A55
:1006F0003F08800008000408AC002B08AE00031976
:100700009A2B2A08B7002908B6002808B500270840
:10071000B400BB01BA012030B9008230B800D62045
:100720007A08AA007908A9007808A8007708A70025
:10073000AE0B812B2A08B7002908B6002808B5009F
:100740002708B4003408B63CB400FA013508B800F4
:10075000B5170310B50CB60CB70CFA0CF90CF80C65
:10076000F70CB40BA92BB81FC02BF709F809F9092E
:10077000FA09F70A0319F80A0319F90A0319FA0A18
:100780007A08AA007908A9007808A8007708A700C5
:10079000AA1FD72BAC03AC16A709A809A909AA0957
:1007A000A70A0319A80A0319A90A0319AA0A3B30C0
:1007B000B3009A30B200CA30B100B0010A30AE00C6
:1007C0002B080319AC0A83142730840083132A08EA
:1007D000B7002908B6002808B5002708B400330878
:1007E000BB003208BA003108B9003008B8002C2329
:1007F0007808F708031D0F2C2B0A2E0203190F2C63
:100800002C080319112C0F392E020319092C031877
:10081000412CAC1B412C2C1B112C20303D2C2030AA
:10082000AC05AC1E1F2CAC122B08031DAC037708C3
:10083000AC002D30B40028222C08F700AC012B08A6
:100840002E02031D2D2C7708AC002E30B400282278
:100850002C08F7002030AC0500303030AC1E3D2CA9
:10086000AC122B08031DAC037708AC002D30B4008C
:1008700028222C08F700AC013030F7077708B400C5
:10088000282283103308B7003208B6003108B500BB
:100890003008B400BB01BA01B9010A30B8002C23FA
:1008A0007A08B3007908B2007808B1007708B00080
:1008B000AE0BE32B8A11E52C03081F398300831646
:1008C0001F129F121B0880399B0007309C00831366
:1008D0001F129F121B0880397F389B001F13831241
:1008E0001F179F1783169F1783121F147B28003032
:1008F000F8001F08C73978049F000630F700F70B8F
:100900007F2C00001F151F19832C83161E088312CD
:10091000A1001E08A2002208A8002108A700B828EC
:10092000B701B6012030B5008130B4007A08BB00B1
:100930007908BA007808B9007708B800D6207A0894
:10094000AA007908A9007808A8007708A7007A0803
:10095000AE007908AD007808AC007708AB00B201B2
:10096000B101B0018930AF004B297A08A60079089F
:10097000A5007808A4007708A300043003178D00B1
:1009800000308F00031007300313A70054220230F9
:1009900084002208A8002108A700AB2A0A30031708
:1009A0008D0000308F0003100B300313A70054227A
:1009B000C93084002608AA002508A9002408A80038
:1009C0002308A7000230AB007B2B5630B40028224E
:0A09D0006430B5001420772C63009A
:04400E00613FFF3FD0
:00000001FF
;PIC16F88
;CRC=7467  CREATED="20-Oct-20 15:28"
