:1000000000308A002A28000083160615831206197C
:1000100007280830F700A201F7171C28F7131C283F
:10002000031006190314A20C77171C287713F70B7B
:1000300010282208F80028281C30F71B0730F80089
:10004000F80B20280000F71B0E28771B1628102815
:100050008A11452803081F3983008316051083126F
:10006000051483161F129F121B0880399B0007304E
:100070009C0083130030860086018312860183165C
:10008000850085018312850104287808A10031309C
:100090002102FC3E03186528043E672883160510DC
:1000A000013083128506652883168510023083127D
:1000B0008506652883160511043083128506652898
:1000C00083168511083083128506442863000A10C0
:0E00D0008A100A1182074E2854285A286028E8
:04400E006A3FFF3FC7
:00000001FF
;PIC16F88
;CRC=611B  CREATED="20-Oct-20 16:08"
