:1000000000308A003B280000FF00030E8301A1009E
:100010007F08A0000A08A7008A01A00E0408A20019
:100020007708A3007808A4007908A5007A08A6003C
:10003000831383128B1E1E280B192F28220884007D
:100040002308F7002408F8002508F9002608FA001C
:1000500027088A00210E8300FF0E7F0E09008A11F7
:100060003128831606100130831286066430810021
:100070000B118A111E2803081F39830083161F12D3
:100080009F121B0880399B0007309C008313860158
:100090008312860183160108C0390238810064305A
:0E00A000831281008B16C0308B04552863003C
:04400E00613FFF3FD0
:00000001FF
;PIC16F88
;CRC=9869  CREATED="10-oct.-20 13:49"
