:1000000001308A00792900000C000C28F2326E328F
:10001000E9326E326F008C20F030E7306E326F00C4
:100020002730840083130008031924280130F800C6
:10003000F701F70B1928F80B18284A30F700F70BCF
:100040001F282228800B162808002D0EF039F700F3
:100050000F30060577048600000006142F280610CE
:1000600008000608F700060E0F39F800080083168E
:10007000061086100611831286100F3083160605AF
:10008000F0388600831206150000061400003120A7
:100090007808AD0006100000061400003120780832
:1000A000AC0006100F3083160605860083122D0E55
:1000B000F700F030F70577082C04F8007808AC005A
:1000C000AC1B3D282A1C86102A1886140000061135
:1000D000000006102B0EAC000F30AC052C08AD0054
:1000E00025202B080F39AC00AD0025200800283052
:1000F000A3000C30A4000130A5000630A6000610B5
:10010000861006110F30831606058600061086102D
:1001100006110F308312A70010200130A200220820
:10012000033C031C9B280330AD0025200530A700AD
:100130001020A20A8F280230AD0025200530A7002C
:100140001020A2012208033C031CB22823302207FE
:10015000840083130008A700AA012708AB003720FA
:10016000A20AA2288A118C29270BB728BA28403066
:10017000A800BB28A80101302602A807280880385B
:10018000A900AA012908AB00372008002508073A72
:100190000319D4280B3A0319D928063A0319E12880
:1001A000023A0319E728EC280130A600A700B42082
:1001B000F128AA010130AB0037200230A70010203F
:1001C000F1280130A6000230A700B420F128AA01CE
:1001D0001030AB003720F1280130AA002508AB0011
:1001E000372008000B08A2008B13831603178C1707
:1001F0000C140000000083120313A21B8B170317BB
:100200000C087F39031946290313A20003170D08B0
:100210000313A30003170F080313A4002208A5006B
:10022000C620230803178D000313240803178F002B
:1002300003130B08A5008B13831603178C170C14DC
:100240000000000083120313A51B8B1703170C0D6E
:100250000E0D7F39031946290313A20003170D0859
:100260000313A30003170F080313A4002208A5001B
:10027000C620230803178D000313240803178F00DB
:100280008D0A03198F0A0313F228031703130800BA
:100290000C30A500C62083160610831206148316A0
:1002A00086018312860183160610831206148316B4
:1002B0008601C03083128600831606108312061052
:1002C0008A11A0298316061083120614831686014C
:1002D0008312860183160610831206148316860184
:1002E00080308312860083160610831206108A114E
:1002F000C22903081F398300A101A00183161F1220
:100300009F121B0880399B0007309C008313FF302D
:100310008500831285017728043003178D00003093
:100320008F000313F220831685148312851CA729DE
:100330000230A2009630A7001020A20B9A2948296B
:10034000053003178D0000308F000313F220831651
:1003500005148312051CC2290230A2009630A700A2
:100360001020A20BAE290B3003178D0000308F0038
:100370000313F2200230A200FA30A7001020A20BD3
:08038000BC29622993296300E6
:04400E00613FFF3FD0
:00000001FF
;PIC16F88
;CRC=A281  CREATED="27-oct.-20 15:23"
