:1000000000308A003F28000023308400831300085A
:10001000031918280130F800F701F70B0D28F80B29
:100020000C284A30F700F70B13281628800B0A28F3
:1000300008000230A200FA30A3000420A20B1B2803
:1000400086010230A2009630A3000420A20B2328D0
:10005000FF308600C830A30004208601C830A3000A
:100060000420FF308600C830A3000420860102303F
:10007000A200C830A3000420A20B392808000308FE
:100080001F39830083161F129F121B0880399B00A3
:1000900007309C008313FF3085008312850183168F
:1000A000860183128600A1011920050B5E28C83045
:1000B000A30004200130A10721088600210F622837
:0800C0001920A101552863007D
:04400E00613FFF3FD0
:00000001FF
;PIC16F88
;CRC=3352  CREATED="21-sep.-20 15:55"
