:1000000002308A00F02A0000FF00030E8301A100E5
:100010007F08A0000A08AB008A01A00E0408A20015
:100020007708A3007808A4007908A5007A08A6003C
:1000300003170D080313A70003170F080313A800E5
:1000400003170C080313A90003170E080313AA00D3
:10005000831383128B1E2E280B194F28220884002D
:100060002308F7002408F8002508F9002608FA00FC
:10007000270803178D000313280803178F000313A5
:10008000290803178C0003132A0803178E00031393
:100090002B088A00210E8300FF0E7F0E09008A11B3
:1000A00065298316061086100611831286100F30FC
:1000B00083160605F0388600831206150000061424
:1000C00000000608F700060E0F39F8007808CA008D
:1000D00006100000061400000608F700060E0F398F
:1000E000F8007808C90006100F3083160605860050
:1000F00083124A0EF700F030F70577084904F8003C
:100100007808C900C91B5728471C86104718861451
:100110000000061100000610480EC9000F30C90586
:100120004908CA004A0EF039F7000F300605770477
:100130008600000006149C28061048080F39C900E4
:100140004908CA004A0EF039F7000F300605770457
:10015000860000000614AC28061008004330840016
:10016000831300080319C2280130F800F701F70BC8
:10017000B728F80BB6284A30F700F70BBD28C0287F
:10018000800BB42808004208073A0319D1280B3A1B
:100190000319E628063A0319EE28023A031904293E
:1001A00009290130C300C400440BD728DA284030A5
:1001B000C500DB28C50101304302C507450880386A
:1001C000C600C7014608C80051200E29C7010130EA
:1001D000C80051200230C300AE200E290130C300F8
:1001E0000230C400440BF528F8284030C500F92837
:1001F000C50101304302C50745088038C600C70164
:100200004608C80051200E29C7011030C8005120EF
:100210000E290130C7004208C800512008000B0811
:10022000BF008B13831603178C170C1400000000FB
:1002300083120313BF1B8B1703170C087F39031995
:1002400063290313BF0003170D080313C00003172E
:100250000F080313C1003F08C200C3204008031762
:100260008D000313410803178F0003130B08C2000E
:100270008B13831603178C170C14000000008312D5
:100280000313C21B8B1703170C0D0E0D7F390319B7
:1002900063290313BF0003170D080313C0000317DE
:1002A0000F080313C1003F08C200C3204008031712
:1002B0008D000313410803178F008D0A03198F0A5D
:1002C00003130F29031703130800AD0B74293C30E7
:1002D000AD00793003178D0001308F0003130F211B
:1002E0000130AE00AF018B12403081000B118A113A
:1002F0002E280C00D237F4306E326F10ED32EE390A
:1003000061356505653720264322A018363C32004A
:10031000A022C4243200A022C42432008C22C4248F
:1003200032000130AF003C30AD00AE012830B300E8
:100330000C30B4000130B5000630B600061086104F
:1003400006110F308316060586000610861006116A
:100350008312AC018B1BAC178B130F30C300AE2084
:10036000AC1B8B170130B2003208033C031CD029B0
:100370000330CA004A0EF039F7000F300605770443
:10038000860000000614C4290610AC018B1BAC17B4
:100390008B130530C300AE20AC1B8B17B20AB429F7
:1003A0000230CA004A0EF039F7000F300605770414
:1003B000860000000614DC290610AC018B1BAC176C
:1003C0008B130530C300AE20AC1B8B17B201320873
:1003D000033C031CFD2933303207840083130008DB
:1003E000B700AC018B1BAC178B13C7013708C800D3
:1003F0005120AC1B8B17B20AE72983160108C039BC
:100400000738810083128B16C0308B044030810086
:1004100008002E08003A0319172A013A03193A2A4C
:10042000033A0319792A013A0319B02AED2A2F0851
:10043000C3000130C400440B1E2A212A4030C500ED
:10044000222AC50101304302C50745088038C6008D
:10045000C7014608C80051207A3003178D000130CB
:100460008F000313AC018B1BAC178B130F21AC1B3C
:100470008B17EE2A2F08C3000130C400440B412A19
:10048000442A4030C500452AC50101304302C50752
:1004900045088038C600C7014608C800512088308A
:1004A00003178D0001308F000313AC018B1BAC17B9
:1004B0008B130F21AC1B8B17AF0AAC018B1BAC1736
:1004C0008B136430C300AE20AC1B8B17AF1B782A94
:1004D0002F080C3C0318782A0230AE00AF01AC01A3
:1004E0008B1BAC178B130C30C200C320AC1B8B17BB
:1004F000EE2A2F08C3000230C400440B802A832A4E
:100500004030C500842AC50101304302C5074508B3
:100510008038C600C7014608C80051208B30031739
:100520008D0001308F000313AC018B1BAC178B13B4
:100530000F21AC1B8B17AF0AAC018B1BAC178B13B5
:100540006430C300AE20AC1B8B17AF1BAF2A2F0843
:100550000C3C0318AF2A0330AE000130AF00EE2A86
:10056000AE012F08C3000130C400440BB82ABB2AD7
:100570004030C500BC2AC50101304302C50745080B
:100580008038C600C7014608C80051208E300317C6
:100590008D0001308F000313AC018B1BAC178B1344
:1005A0000F21AC1B8B170230B200AC018B1BAC17B8
:1005B0008B13FA30C300AE20AC1B8B17B20BD52ABD
:1005C000AC018B1BAC178B130C30C200C320AC1BCF
:1005D0008B178B1640308100EE2A91218A11032B54
:1005E00003081F3983003C30AD00B101B001831610
:1005F0001F129F121B0880399B0007309C00831339
:0A06000083129121092A022B6300E6
:04400E00413FFF3FF0
:00000001FF
;PIC16F88
;CRC=59B5  CREATED="05-abr.-21 17:56"
