:1000000000308A00B1280000FF00030E8301A10028
:100010007F08A0000A08A7008A01A00E0408A20019
:100020007708A3007808A4007908A5007A08A6003C
:10003000831383128B1D1E280B1839288C308400E3
:10004000001C24280C183B288B1E28280B193D283F
:10005000220884002308F7002408F8002508F90086
:100060002608FA0027088A00210E8300FF0E7F0E63
:1000700009008A115C288A114F288A113F28A80B91
:100080004A28831686100230831286061430A80090
:10009000861C8B123D3081000B118A112828831693
:1000A00086100230831286068E010B308F00DC3002
:1000B0008E000C108A112828061E802883168610B0
:1000C000831286140230AA00FA30AB002B30840071
:1000D0008313000803197A280130F800F701F70BA1
:1000E0006F28F80B6E284A30F700F70B7528782830
:1000F000800B6C28AA0B6428831686108312861046
:10010000861E8F281430A80083168610831286104E
:100110008B1683160C108312A9013D308100061F37
:1001200098280508F039AA0006080F392A04850026
:10013000861FAE28A908031DA32883160C140130BE
:100140008312A900A92883160C108610831286102A
:10015000A9018E010B308F00DC308E000B108A114C
:10016000282803081F3983001430A800A90183162A
:100170001F129F121B0880399B0007309C008313BD
:10018000850183128501F030831686008312860173
:1001900083160108C03907388100B53083129000FA
:0A01A0008B15C0308B04D3286300D8
:04400E00613FFF3FD0
:00000001FF
;PIC16F88
;CRC=3B05  CREATED="12-oct.-20 12:39"
