:1000000002308A00912A00000A108A100A11820721
:10001000313432343334343435343634373438349C
:1000200039342A34303423340C26E939F4372E1786
:100030002E0500000C008C216139BD1263008C215B
:100040006139BD1275000C27F536BD1275000C26FE
:10005000E939F4372E172E0500002D308400831364
:100060000008031941280130F800F701F70B362882
:10007000F80B35284A30F700F70B3C283F28800B57
:1000800033280800340EF039F7000F3006057704E6
:100090008600000006144C28061008000608F70029
:1000A000060E0F39F8000800831606108610061198
:1000B000831286100F3083160605F03886008312EF
:1000C00006150000061400004E207808B400061043
:1000D0000000061400004E207808B30006100F3010
:1000E0008316060586008312340EF700F030F705FC
:1000F00077083304F8007808B300B31B5A28311C82
:100100008610311886140000061100000610320E09
:10011000B3000F30B3053308B400422032080F3962
:10012000B300B400422008002830A9000C30AA0017
:100130000130AB000630AC000610861006110F30FF
:100140008316060586000610861006110F308312EE
:10015000AD002D200130A8002808033C031CB8285E
:100160000330B40042200530AD002D20A80AAC2891
:100170000230B40042200530AD002D20A80128082F
:10018000033C031CCF282930280784008313000870
:10019000AD00B1012D08B2005420A80ABF288A1171
:1001A000A52A8A11A62A2E0BD628D9284030AF00BE
:1001B000DA28AF0101302D02AF072F088038B000D8
:1001C000B1013008B200542008002C08073A031986
:1001D000F3280B3A0319F828063A03190029023AC2
:1001E000031906290B290130AD00AE00D3201029D8
:1001F000B1010130B20054200230AD002D20102991
:100200000130AD000230AE00D3201029B101103012
:10021000B200542010290130B1002C08B200542043
:1002200008000B08A8008B13831603178C170C14F7
:100230000000000083120313A81B8B1703170C0880
:100240007F39031965290313A80003170D08031349
:10025000A90003170F080313AA002808AC00E52023
:10026000290803178D0003132A0803178F000313AF
:100270000B08AB008B13831603178C170C140000AC
:10028000000083120313AB1B8B1703170C0D0E0D0D
:100290007F39031965290313A80003170D080313F9
:1002A000A90003170F080313AA002808AC00E520D3
:1002B000290803178D0003132A0803178F008D0ADE
:1002C00003198F0A03131129031703130800A80148
:1002D000A00A2008213C0318E829230803197729DC
:1002E000013A03197D29033A031983298829DE304D
:1002F00083168600831286008829BE308316860006
:100300008312860088297E30831686008312860039
:10031000211C942906081E391E3C031D9329211017
:100320002208A800A201E72906081E391E3C03196D
:10033000E22906080239031D9F29A901B3290608ED
:100340000439031DA6290130A900B329060808397C
:10035000031DAD290230A900B32906081039031D79
:10036000B3290330A9002908AA000330AB00F70124
:10037000F8012A0803102B18F707F70CF80CAB1834
:10038000F707F70CF80C2B19F707F70CF80CAB195B
:10039000F707F70CF80C2B1AF707F70CF80CAB1A49
:1003A000F707F70CF80C2B1BF707F70CF80CAB1B37
:1003B000F707F70CF80C230878070420F800A200D0
:1003C0002114E729A30A2308033C0319A301A00170
:1003D000FE308316860083122808F8008A11B12A9D
:1003E0000B08A9008B13831603178C170C1400003D
:1003F000000083120313A91B8B170318272A031766
:100400000C087F390313A90003170D080313AA0072
:1004100003170F080313AB002908AC00E5202A08D6
:1004200003178D0003132B0803178F0003130B080A
:10043000AC008B13831603178C170C1400000000FC
:1004400083120313AC1B8B17A80B272A462A03170A
:100450000C0D0E0D7F390313A90003170D080313AC
:10046000AA0003170F080313AB002908AC00E5200E
:100470002A0803178D0003132B0803178F008D0A1A
:1004800003198F0A03100313A80BF02908002B0887
:10049000F8012A0203184F2A2A08F7005B2AF701FD
:1004A0000830AC00AA0DF70D2B0877020318F700EF
:1004B000F80DAC0B522A080078082808AA0064300E
:1004C000AB0047227708A80078083030031D6F2A58
:1004D000A91C762AA919762A291A2030722AA9116C
:1004E00029122914F8077808AC00E5202808AA008A
:1004F0000A30AB0047227708A80078083030031D87
:10050000872AA9198B2A291C8B2A291A2030F80737
:100510007808AC00E5203030A8072808AC00E520BA
:10052000080003081F398300A501A40183161F12C8
:100530009F121B0880399B0007309C008313831295
:10054000A0012110A201A3019428D12883168113B0
:100550001430831203178D0000308F000313112114
:1005600067297808A60030302602A700A6080319DC
:10057000162B26082A3C031DC52A1A3003178D00A6
:1005800000308F0003131121162B2608AC00E52044
:100590000230A800FA30AD002D20A80BCA2A1B306B
:1005A00003178D0000308F00031005300313A800DF
:1005B000F0212608AC00E5200230A800FA30AD009A
:1005C0002D20A80BDE2A1F3003178D0000308F006E
:1005D000031005300313A800F0212608A8001B30E3
:1005E000A9005C220230A800FA30AD002D20A80B33
:1005F000F42A233003178D0000308F0003100530DC
:100600000313A800F0212708A8001B30A9005C22D2
:100610000230A800FA30AD002D20A80B0A2B27309D
:1006200003178D0000308F0003131121B02A6300DF
:04400E00613FFF3FD0
:00000001FF
;PIC16F88
;CRC=5868  CREATED="21-oct.-20 14:30"
