:1000000000308A00B1280000FF00030E8301A10028
:100010007F08A0000A08A7008A01A00E0408A20019
:100020007708A3007808A4007908A5007A08A6003C
:10003000831383128B1D1E280B1839288C308400E3
:10004000001C24280C183B288B1E28280B193D283F
:10005000220884002308F7002408F8002508F90086
:100060002608FA0027088A00210E8300FF0E7F0E63
:1000700009008A1169288A114F288A113F28A80B84
:100080004A28831686100230831286061430A80090
:10009000861C8B12403081000B118A112828A90A76
:1000A000831686100230831286062908073C03183F
:1000B000612883160C108312A901831686108312FF
:1000C00086108E010B308F00DC308E000C108A11F0
:1000D0002828061E8D288316861083128614023067
:1000E000AA00FA30AB002B308400831300080319F8
:1000F00087280130F800F701F70B7C28F80B7B28E4
:100100004A30F700F70B82288528800B7928AA0B44
:1001100071288316861083128610861E9828143044
:10012000A80083168610831286108B16403081003B
:10013000061FA1280508F039AA0006080F392A046D
:100140008500861FAE28A90183160C148610831221
:1001500086108E010B308F00DC308E000B108A1160
:10016000282803081F3983001430A800A90183162A
:100170001F129F121B0880399B0007309C008313BD
:10018000850183128501F030831686008312860173
:1001900083160108C03907388100B53083129000FA
:0A01A0008B15C0308B04D3286300D8
:04400E00613FFF3FD0
:00000001FF
;PIC16F88
;CRC=9514  CREATED="13-oct.-20 15:53"
