:1000000000308A004D28000025308400831300084A
:10001000031917280630F800F701F70B0D28F80B25
:100020000C287B30F700F70B1328800B0A280800F8
:100030000508F7002108F800031922280310F70C1F
:10004000F80B1E28771C32280130F7002108F80031
:1000500003192E280310F70DF80B2A287708FF3A0A
:1000600085053E280130F7002108F80003193C28D7
:100070000310F70DF80B3828770885042308A4002F
:10008000A40AA40303194828FF30A500042041282E
:100090002208A50004208A11732803081F39830051
:1000A00083161F129F121B0880399B0007309C008B
:1000B0008313EF3085008312850118308316860084
:1000C00083128601003086190130A1000030061A23
:1000D00001302102031D74280430A1000130A30067
:0E00E000F430A200182875280512622863006B
:04400E00623FFF3FCF
:00000001FF
;PIC16F88
;CRC=5CD6  CREATED="22-sep.-20 14:10"
