:1000000000308A003D280000FF00030E8301A1009C
:100010007F08A0000A08A7008A01A00E0408A20019
:100020007708A3007808A4007908A5007A08A6003C
:10003000831383128B1E1E280B192F28220884007D
:100040002308F7002408F8002508F9002608FA001C
:1000500027088A00210E8300FF0E7F0E09008A11F7
:100060003128861B37288617833081003A2886136B
:10007000833081000B118A111E2803081F39830069
:1000800083161F129F121B0880399B0007309C00AB
:1000900083137F3086008312861383160108C039CC
:1000A0000738810083128B16C0308B0483308100A7
:0400B0005828630069
:04400E00613FFF3FD0
:00000001FF
;PIC16F88
;CRC=89F4  CREATED="29-nov.-20 18:03"
