:1000000000308A001A2800002D3084008313000875
:10001000031918280130F800F701F70B0D28F80B29
:100020000C284A30F700F70B13281628800B0A28F3
:100030008A114A2803081F39830083161F129F1252
:100040001B0880399B0007309C008313FF3085001C
:10005000831285018316860183128601A1013F3038
:10006000A2000630A3005B30A4004F30A50066302C
:10007000A6006D30A7007D30A8000730A9007F30B2
:10008000AA006730AB00051852280230AC00963049
:10009000AD000428AC0B47280130A1072108093C1A
:1000A000031CA1012230210784008313000886006D
:0400B000432863007E
:04400E00613FFF3FD0
:00000001FF
;PIC16F88
;CRC=1BCC  CREATED="21-sep.-20 15:26"
