:1000000000308A004B280000FF00030E8301A1008E
:100010007F08A0000A08A7008A01A00E0408A20019
:100020007708A3007808A4007908A5007A08A6003C
:10003000831383128B1D1E280B1833288B1E222836
:100040000B193528220884002308F7002408F8003B
:100050002508F9002608FA0027088A00210E8300E7
:10006000FF0E7F0E09008A1142288A113728A80B3B
:100070003D2806110A30A8008B12403081000B1178
:100080008A11222806150A30A800403081008B16FC
:100090000B108A11222803081F3983000A30A80098
:1000A00083161F129F121B0880399B0007309C008B
:1000B0008313F03086008312860183160108C0394D
:1000C000073881004030831281008B15C0308B04CB
:0400D0006828630039
:04400E00613FFF3FD0
:00000001FF
;PIC16F88
;CRC=33D0  CREATED="13-oct.-20 15:51"
