:1000000000308A004E280000253084008313000849
:10001000031918280130F800F701F70B0D28F80B29
:100020000C284A30F700F70B13281628800B0A28F3
:1000300008000508F7002108F80003192328031019
:10004000F70CF80B1F28771C33280130F700210824
:10005000F80003192F280310F70DF80B2B28770849
:10006000FF3A85053F280130F7002108F800031901
:100070003D280310F70DF80B39287708850423086D
:10008000A400A40AA40303194928FF30A5000420F2
:1000900042282208A50004208A11762803081F3967
:1000A000830083161F129F121B0880399B000730A4
:1000B0009C008313EF30850083128501183083166E
:1000C000860083128601003086190130A1000030BD
:1000D000061A01302102031D75280430A1000130E9
:1000E000A300F430A20019287628051263286300C3
:04400E00613FFF3FD0
:00000001FF
;PIC16F88
;CRC=ED3B  CREATED="20-sep.-20 14:06"
