:1000000000308A00F72800000A108A100A118207BF
:10001000313432343334343435343634373438349C
:1000200039342A34303423348A110929A601A00A2C
:100030002008213C03189728230803192628013A91
:1000400003192C28033A031932283728DE30831687
:100050008600831286003728BE30831686008312FE
:10006000860037287E308316860083128600211C86
:10007000432806081E391E3C031D42282110220871
:10008000A600A201962806081E391E3C03199128D5
:1000900006080239031D4E28A70162280608043904
:1000A000031D55280130A700622806080839031DE2
:1000B0005C280230A700622806081039031D622858
:1000C0000330A7002708A8000330A900F701F801B2
:1000D000280803102918F707F70CF80CA918F707D8
:1000E000F70CF80C2919F707F70CF80CA919F70702
:1000F000F70CF80C291AF707F70CF80CA91AF707F0
:10010000F70CF80C291BF707F70CF80CA91BF707DD
:10011000F70CF80C230878070420F800A20021143B
:100120009628A30A2308033C0319A301A001FE306B
:100130008316860083122608F8008A110E292830BB
:100140008400831300080319B3280130F800F70175
:10015000F70BA828F80BA7284A30F700F70BAE28B2
:10016000B128800BA528080027080739F700270CBD
:10017000F800F80CF80C1F30F805780829078400FF
:1001800083132A188317F801F80AF70AC828F80D0C
:10019000F70BC728A8080319D02878088004D328AB
:1001A000F8097808800508002608A7000130A80093
:1001B000AA01A901B4202608A700A801AA0180303D
:1001C000A900B4200230A700FA30A8009F20A70B96
:1001D000E4282608A700A801AA01A901B42026083E
:1001E000A700A801AA018030A900B42008000308D4
:1001F0001F39830083161F129F121B0880399B0032
:1002000007309C0083138312A0012110A201A301D7
:100210001428831681138501831216287808A400F8
:1002200030302402A500A4080319772924082A3CA9
:1002300003191E292408233C031D302983160610A8
:10024000FF308312850083160610831206140230D5
:10025000A600FA30A8009F20A60B2929850177293E
:100260002508F63E031877290A3E79292830A6008A
:10027000D42077292930A600D42077292A30A60057
:10028000D42077292B30A600D42077292C30A60043
:10029000D420772983160610831285018316061051
:1002A000831206140230A600FA30A8009F20A60B85
:1002B000542977292E30A600D42077292F30A60084
:1002C000D4207729823085000230A600FA30A800B9
:1002D0009F20A60B6629850177298430850002308E
:1002E000A600FA30A8009F20A60B712985010D29D0
:1002F00063000A148A100A11820736293A293E2916
:0E030000422946294A295A295E2962296D2977
:04400E00703FFF3FC1
:00000001FF
;PIC16F88
;CRC=F485  CREATED="21-oct.-20 13:36"
