:1000000001308A008A290000B114A02665326939BE
:100010000000B114A026653269390001B214A02194
:100020006136E33AEC307200B314A024EE34E334CA
:100030006136693D6139000029308400831300086E
:10004000031930280130F800F701F70B2528F80BC9
:1000500024284A30F700F70B2B282E28800B222863
:1000600008002F0EF039F7000F30060577048600E0
:10007000000006143B28061008000608F700060ECC
:100080000F39F80008008316061086100611831237
:1000900086100F3083160605F03886008312061589
:1000A0000000061400003D207808AF000610000094
:1000B000061400003D207808AE0006100F308316AD
:1000C0000605860083122F0EF700F030F70577083B
:1000D0002E04F8007808AE00AE1B49282C1C8610B0
:1000E0002C18861400000611000006102D0EAE001C
:1000F0000F30AE052E08AF0031202D080F39AE00AD
:10010000AF00312008002830A5000C30A6000130D7
:10011000A7000630A8000610861006110F308316BF
:10012000060586000610861006110F308312A900FE
:100130001C200130A4002408033C031CA728033022
:10014000AF0031200530A9001C20A40A9B280230F2
:10015000AF0031200530A9001C20A4012408033C75
:10016000031CBE2825302407840083130008A9003F
:10017000AC012908AD004320A40AAE288A119D29AC
:10018000290BC328C6284030AA00C728AA0101307D
:100190002802AA072A088038AB00AC012B08AD0062
:1001A000432008002708073A0319E0280B3A0319EF
:1001B000E528063A0319ED28023A0319F328F8282E
:1001C0000130A800A900C020FD28AC010130AD001D
:1001D00043200230A9001C20FD280130A800023075
:1001E000A900C020FD28AC011030AD004320FD283F
:1001F0000130AC002708AD00432008000B08A40024
:100200008B13831603178C170C1400000000831245
:100210000313A41B8B1703170C087F3903195229EA
:100220000313A40003170D080313A50003170F08F9
:100230000313A6002408A700D220250803178D0069
:100240000313260803178F0003130B08A7008B1353
:10025000831603178C170C1400000000831203137D
:10026000A71B8B1703170C0D0E0D7F39031952298D
:100270000313A40003170D080313A50003170F08A9
:100280000313A6002408A700D220250803178D0019
:100290000313260803178F008D0A03198F0A03130F
:1002A000FE280317031308002408003A03195F29E6
:1002B000013A03196D29033A03197B29882983160A
:1002C000051104308312850683168511831285116A
:1002D00083160512831205128829831685110830AA
:1002E00083128506831605118312051183160512E4
:1002F0008312051288298316051210308312850691
:100300008316851183128511831605118312051139
:100310008A11EB2903081F398300A101A00183166C
:100320001F129F121B0880399B0007309C0083130B
:100330008312A2010330A3008328043003178D0029
:1003400000308F000313FE20831605148312051C52
:10035000DC29A20A0230A4009630A9001C20A40BBC
:10036000AC290C30A700D22001302302220203194D
:10037000BB290318A20122080319C529013A031950
:10038000CD29033A0319D529DC29093003178D003B
:1003900000308F000313FE20DC290E3003178D0080
:1003A00000308F000313FE20DC29143003178D006A
:1003B00000308F000313FE20831685148312851CE2
:1003C000EB290230A4009630A9001C20A40BE329DD
:0A03D0002208A4005429A4296300A8
:04400E00413FFF3FF0
:00000001FF
;PIC16F88
;CRC=C5C5  CREATED="14-oct.-20 12:22"
